:020000040800F2
:100000009805002005010008EB2300082D200008BA
:10001000E9230008FD070008812700080000000010
:10002000000000000000000000000000EF230008B6
:100030001B08000800000000ED230008F123000861
:100040001F0100081F0100081F0100081F01000810
:100050001F0100081F0100081F0100081F01000800
:100060001F0100081F0100081F0100081F010008F0
:100070001F0100081F0100081F0100081F010008E0
:100080001F0100081F0100081D0700081F010008CC
:100090001F0100081F0100081F0100081F010008C0
:1000A0001F0100081F0100081F0100081F010008B0
:1000B0001F0100081F0100081F0100081F010008A0
:1000C0001F0100081F0100081F0100081F01000890
:1000D0001F010008752700081F0100081F01000804
:1000E0001F0100081F0100081F010008DFF810D0E1
:1000F00000F002FB0048004795310008AFF3008094
:10010000980500200648804706480047FEE7FEE7BE
:10011000FEE7FEE7FEE7FEE7FEE7FEE7FEE7FEE7B7
:1001200053240008ED000008202A04DB203A21FABD
:1001300002F00021704721FA02F3D040C2F1200200
:100140009140084319467047D2B201E000F8012BF4
:10015000491EFBD270470022F6E710B513460A4647
:1001600004461946FFF7F0FF204610BD421E12F864
:10017000013F002BFBD111F8013B02F8013B002BA2
:10018000F9D170472DE9FE4F804681EA0300C00F88
:100190000C46009021F0004123F00045B8EB02002E
:1001A000A94105D24046214690461C460B460246D0
:1001B00023F00040104347D0270DC7F30A00C3F3D4
:1001C0000A510290401A019040286BDAC3F31300E1
:1001D00040F4801B0098924620B10023D2EB030A22
:1001E00063EB0B0B01985946C0F14002504600F0FA
:1001F00066F906460D4650465946019A00F06EF9DA
:1002000010EB08006141002487EA115284EAE77389
:100210001A4340D0009A62B3019A012A4FEA07526A
:1002200015DC001B61EB02014FF0004202EA0752AD
:10023000CDE90042001C41F5801132462B4600F00A
:100240006EF903B0BDE8F08F40462146F9E7001B88
:1002500061EB0201001C41F5801300185B4120187E
:10026000A2F5001747EB030140EAD570B6196D41BE
:1002700011E06D084FEA360645EAC0754FEA0752AD
:10028000001B61EB0201001C41F5801149084FEA97
:1002900030000019514132462B4603B0BDE8F04F03
:1002A00000F02EB90098012240000023D0EB02029A
:1002B00063EBE073009821464FEAE074B8EB00006E
:1002C00061EB0401E9E783F000435BE781F0004163
:1002D00058E72DE9FE4F81EA030404F0004421F0C1
:1002E000004100944FF0000B23F0004350EA01045A
:1002F0005ED052EA03045BD0C3F30A54C1F30A553B
:100300002C44A4F2F3340194A0FB0254C1F3130172
:1003100041F48011C3F3130343F4801301FB02443F
:1003200000FB034E840A970A44EA815447EA835744
:10033000A4FB076802958D0A05FB07854FEA932CFD
:1003400004FB0C542705029D4FEA065847EA16376E
:10035000B5EB08056EEB070C870E920E47EA811786
:1003600042EA8312A7FB0201B6EB0B0164EB000427
:100370002B0D43EA0C335E1844EB1C50DA46514611
:10038000E7FB0201C5F313044FEA0B3343EA1453AE
:100390004FEA0432019C43EA0603A4F10C040294E0
:1003A000009CCDE900B400F0BAF803B0BDE8F08FCE
:1003B00000200146F9E770B521F0004303430CD05B
:1003C000C1F30A550024D5EB040564EB0403D617EA
:1003D000AD1AB34102DB0020014670BD201841EB8D
:1003E000025170BD0EB540F2334102910021CDE9BA
:1003F00000110A460B4600F092F803B000BDC1F3AD
:100400000A5210B5C1F3130140F2FF3341F48011D9
:100410009A4201DA002010BD40F233439A42A2F220
:10042000334203DC5242FFF77FFE10BD904010BD07
:1004300030B50B46014600202022012409E021FAB4
:1004400002F59D4205D303FA02F5491B04FA02F5B1
:100450002844151EA2F10102F1DC30BD2DE9F05F48
:100460000546002092469B46884606468146402423
:100470001BE02846414647462246FFF755FE5346B5
:100480005A46C01A914110D311461846224600F030
:1004900016F82D1A67EB01084F462246012000216D
:1004A00000F00DF817EB00094E41201EA4F10104E5
:1004B000DFDC484631462A464346BDE8F09F202A05
:1004C00004DB203A00FA02F1002070479140C2F1AB
:1004D000200320FA03F3194390407047202A06DBDB
:1004E000CB17203A41FA02F043EAE07306E041FA02
:1004F00002F3D040C2F120029140084319467047F0
:1005000010B5141E73F1000408DA401C41F100011B
:1005100092185B411A4301D120F0010010BD2DE972
:10052000F04D92469B4611B1B1FA81F202E0B0FA69
:1005300080F220329046FFF7C2FF04460F4640EAA1
:100540000A0041EA0B0153465A46084313D01146AC
:1005500053EA010019D0C8F140025046FFF7E4FD0C
:1005600005460E46504659464246FFF7A8FF084347
:1005700005D0012004E020463946BDE8F08D00207A
:10058000054346EAE0762C4337430A986305E40ABC
:10059000A0EB08000022FD0A44EA47540A3002D5C5
:1005A00000200146E9E7010510196941DDE9084528
:1005B00000196941BDE8F04DA2E72DE9F04D81EA4F
:1005C000030404F0004B21F0004514464FF0000AEC
:1005D00023F0004150EA050220D054EA01021DD068
:1005E000C5F30A570246C5F31303C1F31300C1F361
:1005F0000A5640F4801543F48013A7EB0608101B3D
:10060000D64608F2FD3873EB050002D308F1010865
:1006100001E092185B41B8F1000F03DA00200146B7
:10062000BDE8F08D00204FF48011064684460EE0B0
:10063000171B73EB050705D3121B63EB050306437A
:100640004CEA010C49084FEA300092185B4150EA2D
:100650000107EDD152EA030012D082EA040083EAD6
:100660000501084305D0101BAB4106D2012200232F
:1006700006E000224FF0004302E06FF00102531049
:100680001AEB06004CEB085110EB0A0041EB0B0192
:10069000BDE8F04DFFF734BFC1F30A52C1F31301B7
:1006A00040F2FF3341F480119A4202DA0020014601
:1006B000704740F233439A42A2F2334202DC524284
:1006C000FFF732BDFFF7FBBE30B5041E71F1000429
:1006D00004DB4FF00044404264EB0101141E73F14F
:1006E000000405DB1C464FF00043524263EB040359
:1006F000994208BF904230BD064C074D06E0E068C5
:1007000040F0010394E8070098471034AC42F6D358
:10071000FFF7F0FC94350008B4350008014800F0FC
:1007200010B900001800002070B504460068816808
:10073000C943C90717D1816821F00101816000F028
:1007400019FC05460AE000BF00F014FC401B02281B
:1007500004D920688068C043C00706D0206880683C
:10076000C043C007F0D0002070BDA06A40F0100068
:10077000A062E06A40F00100E062012070BD00006C
:10078000F8B500260446009600688168C943C90789
:100790002DD0816841F0010181601648164900683A
:1007A000B0FBF1F000E0401E00900028FBD100F00B
:1007B000E1FB054616E000BF00F0DCFB401B022811
:1007C00010D920688068C043C0070BD0A06A40F0F1
:1007D0001000A062E06A40F00100E06284F824604A
:1007E0000120F8BD20688068C043C007E4D1002024
:1007F000F8BD00001400002040420F00FEE710B5D5
:10080000036800225A624FF47A7303E00268546A64
:100810009C42FCD3491EF9D210BD704770470000BE
:10082000F8B50024009490F824202546012A12D01F
:10083000012280F824204A681F23072A0DD2066867
:10084000776B521E02EB820293409F430B689340EA
:100850001F43776319E00220F8BD06680D2A0AD20B
:10086000376BD21F02EB820293409F430B68934089
:100870001F43376309E0F76A0D3A02EB82029340A7
:100880009F430B6893401F43F7620A68072306687B
:100890000A2A0AD3F7680A3A02EB420293409F43BE
:1008A0008B6893401F43F76008E0376902EB420210
:1008B00093409F438B6893401F4337610A68102A17
:1008C00001D0112A20D1124B02689A4217D19368A5
:1008D0001B0219D4936843F400039360096810293C
:1008E00012D10C490C4A0968B1FBF2F101EB81010C
:1008F000490000E0491E00910029FBD104E0816A13
:1009000041F020018162012480F824502046F8BD86
:10091000002401401400002040420F0010B505499A
:1009200000680968884204D1024800F007F80249CB
:10093000888010BD18000020000000200068C06CF6
:10094000704710B5044600684168890626D50168DD
:10095000890723D5A16AC90603D4A16A41F40071AD
:10096000A1628168C1F34241072910D1217B71B98D
:10097000416821F020014160A06A20F48070A062EB
:10098000A06AC00403D4A06A40F00100A06220461F
:10099000FFF7C4FF21686FF012000860206841680B
:1009A00009062ED5016849072BD5A16AC90603D4CB
:1009B000A16A41F40051A1628168C1F302310729A3
:1009C00009D04168490515D48168C1F3424107291E
:1009D00010D1217B71B9416821F080014160A06A8A
:1009E00020F48050A062A06AC00503D4A06A40F041
:1009F0000100A0622046FFF711FF21686FF00C0094
:100A000008602068416849060DD50068C0070AD013
:100A1000A06A40F48030A062204600F093F821687C
:100A20006FF00100086010BD2DE9F0414FF00007A4
:100A300004003D467ED0A06A002628B9E66284F80C
:100A40002460204600F080F82046FFF76DFEA16A82
:100A5000C90600D420B1A06A40F01000A06269E08D
:100A6000A16A21F4885141F00201A1626268E16942
:100A7000237B0A4347EA43010A43A1684FF4807786
:100A8000B94209D0012907D05FF0000194F814C0E1
:100A9000BCF1010F02D00AE03946F7E7F3B1A36ACF
:100AA00043F02003A362E36A43F00103E362236897
:100AB000D3F804C02CF4694C4CEA010CC3F804C010
:100AC00021688B68DFF870C003EA0C0313438B6066
:100AD000A168B9420BD0012909D00CE0DFF85CC055
:100AE000A3690CEB43330B4343F40061DFE7218A36
:100AF0000D05A5F580152168CB6A23F470032B43FF
:100B0000CB62216889680E4B1940914208D1E66298
:100B1000A16A21F0020141F00101A162BDE8F0816A
:100B2000A06A20F0020040F01000A062E06A40F0ED
:100B30000100E0620120F1E7FDF7E1FF00E0FFFFC7
:100B4000FE0E1FFF7047000000B585B00021009128
:100B500001910291039100681249884220D1124804
:100B6000816941F400718161816901F4007104912E
:100B7000816941F0040181618069694600F00400E7
:100B800004902020009003200190084800F0F8F81D
:100B900000221146122000F0E1FB122000F0D0FBF1
:100BA00005B000BD002401400010024000080140D3
:100BB00070B5044690F8240001280DD0012084F877
:100BC00024002046FFF7DCFD02004FF0000005D0B6
:100BD00084F82400104670BD022070BDA16A40F662
:100BE0000163994341F48071A162224D2368224937
:100BF000AB4218D10E6816F4702F14D0A66A46F4D2
:100C00008016A6620E68760505D5A66A26F40056FB
:100C100046F48056A662A66AF6040AD5E66A26F06D
:100C20000606E66206E0A66A26F48016A6625E68FC
:100C3000E9E7E06284F824006FF0020018602068A1
:100C4000436843F02003436020688368C3F3424352
:100C5000072B05D1A84208D1096811F4702F04D0E0
:100C6000816841F480118160B4E7816841F4A0019A
:100C7000F9E70000002801400424014010B590F875
:100C800021100022022905D00421816380F8202050
:100C9000012010BD01680B6823F00E030B60016892
:100CA0000B6823F001030B6090F84030C46B012106
:100CB00001FA03F3636080F8211080F820201046C9
:100CC00010BD000010B590F821100024022903D0B7
:100CD0000421816301243DE001680A6822F00E02CC
:100CE0000A6001680A6822F001020A601A4A016873
:100CF000914201D1012121E0174A1432914201D1E0
:100D000010211BE0144A2832914201D1891515E0C7
:100D1000114A3C32914201D189140FE00E4A5032FF
:100D2000914202D14FF4803108E00B4A6432914283
:100D300002D14FF4801101E04FF08071064A083A69
:100D40005160012180F82110002180F82010416BB2
:100D500001B18847204610BD0800024070B5044626
:100D600000F008F90546601C02D0044800780444ED
:100D700000F000F9401BA042FAD370BD080000202B
:100D80002DE9F84FDFF8B891002409F1040A0AF1BF
:100D9000040B23460F270BF1040EC9E00125A540E3
:100DA0002A40AA427DD1674ED1F804C0ACEB0608B8
:100DB000B44532D014DCBCF1030F3AD009DCBCF1ED
:100DC000000F2AD0BCF1010F1CD0BCF1020F31D1B1
:100DD0001DE0BCF1110F17D0BCF1120F2AD119E0A0
:100DE000B8F5881F19D006DCB8F5803F15D0B8F5E6
:100DF000801F1FD111E0B8F5001F0ED0B8F5041FF9
:100E000018D10AE0CB6815E0CB681B1D12E0CB6857
:100E100008330FE0CB680C330CE08B682BB1012B4F
:100E20004FF0080303D0456104E0042302E00561AC
:100E300000E00023FF2A01D8064601E000F1040685
:100E40004FEA840501D9A5F12005D6F8008007FAFC
:100E500005FC28EA0C0803FA05F548EA0508C6F877
:100E600000804D68ED0062D5374DAE6946F0010651
:100E7000AE61AD6924F0030605F001050095334D20
:100E800006EB050CDCF80850A607360F07FA06F843
:100E900025EA0805DFF8B880404503D14FF0000887
:100EA00017E044E0DFF8AC80404502D14FF0010884
:100EB0000FE0DFF8A480404502D14FF0020808E0BF
:100EC000DFF89880404502D14FF0030801E04FF071
:100ED000040808FA06F848EA0508CCF808804D68C6
:100EE000D9F80060ED034D4601D5164300E0964366
:100EF0002E604D68DAF80060AD03554601D5164303
:100F000000E096432E604D68DBF80060ED025D4620
:100F100001D5164300E096432E604D68DEF8006070
:100F2000AD02754601D5164300E096432E60641C61
:100F30000D682A46E5407FF431AFBDE8F88F000028
:100F400000040140000011100010024000000140A8
:100F500000080140000C0140001001400014014055
:100F60008068084000D0012070470AB101617047D5
:100F70000904FBE701488068704700000800002072
:100F800070B5040025D094F83D00002520B984F800
:100F90003C50204600F04EF9242084F83D002068A3
:100FA000016821F0010101602068016841F40041FD
:100FB00001602068016821F40041016000F00CFB31
:100FC0004D4A6168914201D84C4900E04C49884241
:100FD00001D2012070BD4B492368B0FBF1F15E687E
:100FE00026F03F060E435E606368934206D94FF4D5
:100FF000967359434FF47A73B1FBF3F12368491C9C
:101000001E6A26F03F06314319626168914210D88A
:101010004900401EB0FBF1F2521CC2F30B02042A3D
:1010200001D2042022E0B0FBF1F0401CC0F30B0021
:101030001CE0A268F2B301EBC10303EB0116431EEF
:10104000B3FBF6F35B1C43F480431B0549D092B31A
:1010500001EBC10202EB0111401EB0FBF1F0401C9C
:10106000C0F30B0040F4804040F400402168CA699E
:101070004CF6FF739A431043C861D4E9071001434B
:101080002068026822F0C00211430160D4E9030124
:1010900001432068826848F2FF339A43114381601C
:1010A000D4E9050108432168CA6822F0FF02104311
:1010B000C86001E00EE016E02068016841F001011F
:1010C00001602564202084F83D00256384F83E50AB
:1010D000002070BD01EB4106431EB3FBF6F35B1C21
:1010E000B3E70120C2E701EB4101401EB0FBF1F084
:1010F000401CC0F30B00B7E7A086010080841E00EF
:1011000000093D0040420F002DE9F84F1F46904670
:101110008A460446DDF82890FFF72CFF054694F830
:101120003D0020287FD11923012240492046009507
:1011300001F008F8002876D194F83C00012872D01C
:10114000012084F83C0020680168C90703D10168C8
:1011500041F0010101602068016821F40061016033
:10116000212084F83D00102084F83E0000262664EB
:10117000C4F824806785608D20852D48E0622B4669
:101180004A465146204600F069FF90B920684169FF
:101190008069009036E02A464946204601F051F821
:1011A00050B1206C042804D12068016841F400711A
:1011B00001600120BDE8F88F606A2168007808614D
:1011C000606A401C6062618D491E6185218D491EE7
:1011D00089B2218522685369DB435B070BD451B187
:1011E00000781061606A401C6062608D401E6085FE
:1011F000208D401E20852A464946204600F07CFF6F
:101200000028CED1208D0028C5D154F83D0B0168AF
:1012100041F400710160202004F81E09E67766772A
:101220000020C7E7FFE70220C4E70000020010002B
:101230000000FFFF10B586B00021009101910291DE
:10124000039100680F4988421AD10F4CA06940F001
:101250000800A061A069694600F008000490C02061
:10126000009012200190032003900848FFF788FDAA
:10127000E06940F40010E061E06900F400100490BF
:1012800006B010BD0054004000100240000C0140A8
:10129000024881680278114481607047080000208C
:1012A000074810B5016841F010010160032000F00B
:1012B00075F8002000F006F800F024F8002010BDBA
:1012C0000020024070B50D4D04464FF47A71287825
:1012D000B1FBF0F00A490968B1FBF0F000F062FBE5
:1012E00048B9102C07D200222146501E00F036F8D3
:1012F00000206C6070BD012070BD0000080000205F
:10130000140000200C4808B5816941F00101816199
:10131000816901F001010091C16941F08051C16111
:10132000C06900F0805000900448416821F0E061FD
:1013300041F00071416008BD001002400000014012
:10134000002809DB00F01F020121914040098000C4
:1013500000F1E020C0F8001170470000F0B40E4B1F
:101360001B680C46C3F30223C3F10705042D00D903
:101370000425191D072901D2002300E0DB1E0126E8
:1013800006FA05F1491E214099409E40761E1640FE
:101390003143F0BC01F00ABA0CED00E0064900F060
:1013A000070208684FF6FF03184040EA0220034A8C
:1013B00010430860704700000CED00E00000FA05E3
:1013C0002DE9F84305460078354CC00754D0E06954
:1013D0000026C00008D4E06940F08050E061E06978
:1013E000012600F0805000902E480168C90512D4F3
:1013F0000168804641F480710160FFF7BBFD07463C
:1014000005E000BFFFF7B6FDC01B642823D8D8F85D
:101410000000C005F6D5206A10F4407021D0A988DC
:1014200001F4407181421CD0206A1F49012220F43E
:1014300040700A6000220A602062C00711D0FFF7E6
:1014400099FD074641F2883808E000BFFFF792FD9A
:10145000C11B414502D90320BDE8F883206A8007FB
:10146000F4D5206A696820F44070084320621EB1F8
:10147000E06920F08050E0612878800705D5606839
:10148000A96820F44040084360602878C00605D56C
:101490006068E96820F48000084360600020DBE7B2
:1014A0000010024000700040400442422DE9F04725
:1014B0000F46050061D0434E306800F00700B84287
:1014C00009D2306820F0070038433060306800F0FF
:1014D0000700B84251D128683B4C810712D540071C
:1014E00003D5606840F4E06060602878000703D5A9
:1014F000606840F4605060606068A96820F0F000A7
:10150000084360602878C00728D06868012810D098
:101510002168022810D0890700292EDA616821F09D
:10152000030101436160FFF725FD804641F28839E0
:101530000DE021688903EFE78901EDE7FFF71AFD68
:10154000A0EB0801494502D90320BDE8F087606897
:10155000696800F00C00B0EB810FEFD1306800F04B
:101560000700B8420BD9306820F0070038433060DC
:10157000306800F00700B84201D00120E5E7287884
:10158000400705D56068E96820F4E06008436060C2
:101590002878000706D56068296920F4605040EA81
:1015A000C100606000F038F86168084AC1F30311B7
:1015B000515CC8400649086006480068FFF782FE93
:1015C0000020C2E700200240001002407C350008E5
:1015D000140000200C0000200448054900684968F8
:1015E000044AC1F30221515CC84070471400002036
:1015F000001002408C35000804480549006849681D
:10160000044AC1F3C221515CC84070471400002055
:10161000001002408C35000812A185B00FC98DE87A
:101620000F0014A0144A006804905168134801F098
:101630000C03042B10D0082B0ED1C1F38343C90334
:101640001DF803000AD5516804AAC1F34041515C5A
:101650000A4A5043B0FBF1F005B0704708494843CF
:10166000FAE7000002030405060708090A0B0C0D3F
:101670000E0F1010010200000010024000127A004C
:1016800000093D002DE9F84F040070D02078C04DCE
:10169000C00749D06868C0F38100012807D0686896
:1016A000C0F38100022809D16868C00306D5286804
:1016B000800339D560680028E7D035E06068B0F570
:1016C000803F0BD010B1B0F5A02F11D0286820F4C6
:1016D00080302860286820F4802002E0286840F4E8
:1016E00080302860606890B1FFF744FC06460AE04D
:1016F000286840F480202860F0E700BFFFF73AFC3C
:10170000801B642873D828688003F7D50CE0FFF7A6
:1017100031FC064605E000BFFFF72CFC801B642867
:10172000F0D828688003F7D420789A4E80074FF0CD
:1017300001094FF0000839D5686810F00C0F07D088
:101740006868C0F38100022809D16868C00306D424
:101750002868800714D52069012808D110E0206985
:10176000B0B1C6F80090FFF705FC074605E00AE1B6
:10177000FFF700FCC01B0228C4D828688007F7D5F3
:101780002868616920F0F80040EAC10028600DE097
:10179000C6F80080FFF7EEFB074604E0FFF7EAFB20
:1017A000C01B022823D828688007F7D420780007B8
:1017B0002CD57948A169D9B1C0F80090FFF7DAFBC0
:1017C000074604E0FFF7D6FBC01B02280FD8686A63
:1017D0008007F7D571484FF4FA510068B0FBF1F07B
:1017E000009000BF0098411E0091FAD20EE080E008
:1017F000C0F80080FFF7BEFB074604E0FFF7BAFB26
:10180000C01B022875D8686A8007F7D42078400783
:1018100060D5E8690027C00008D4E86940F080502E
:10182000E861E869012700F0805000905C48016899
:10183000C90513D40168834641F480710160FFF744
:1018400099FB824606E000BFFFF794FBA0EB0A007D
:1018500064284ED8DBF80000C005F5D5E068012803
:101860000AD008B1052813D0286A20F001002862A8
:10187000286A20F0040002E0286A40F00100286293
:10188000E06841F2883B98B1FFF774FB82460BE0B9
:10189000286A40F004002862EEE700BFFFF76AFB09
:1018A000A0EB0A0159455AD8286A8007F6D50CE002
:1018B000FFF760FB824605E0FFF75CFBA0EB0A0147
:1018C00059454CD8286A8007F6D41FB1E86920F042
:1018D0008050E861E06988B36968C1F38101022939
:1018E00044D00228C6F8608004D0FFF743FB0446CA
:1018F00038E034E0FFF73EFB074604E0FFF73AFB31
:10190000C01B02282BD828688001F7D4206AB0F5C4
:10191000803F05D16868A16820F400300843686002
:10192000D4E908010843696821F474110843686028
:10193000C6F86090FFF71EFB044606E025E000BFF6
:10194000FFF718FB001B022809D828688001F7D58B
:101950001BE000BFFFF70EFB001B022802D903208B
:10196000BDE8F88F28688001F4D40EE00128F7D094
:101970006868226A00F48031914204D1616A00F4FF
:101980007010884201D00120EAE70020E8E700005B
:101990000010024000004242800442421400002035
:1019A0000070004010B5401EB0F1807F01D30120CF
:1019B00010BD4FF0E02460610F21601700F0F6FECB
:1019C0000020A06107202061002010BD70B590F8B4
:1019D0003C20012A26D0012480F83C40022280F8D5
:1019E0003D2003685A689D6822F070060A683243F9
:1019F0005A600D4B02689A4208D0B2F1804F05D070
:101A00000A4B9A4202D00A4B9A4204D1496825F007
:101A100080031943916080F83D40002180F83C101C
:101A2000084670BD022070BD002C0140000400403B
:101A30000008004010B5040003D094F83D0010B138
:101A400007E0012010BD002084F83C00204600F093
:101A50001FF8022084F83D00211D206800F0FAFCE8
:101A6000012084F8460084F83E0084F83F0084F8A2
:101A7000400084F8410084F8420084F8430084F870
:101A8000440084F8450084F83D00002010BD0000AB
:101A900008B501680B48B1F1804F0BD00A4A91425A
:101AA00007D1C16941F00201C161C06900F00200C3
:101AB000009008BDC16941F00101C161C06900F039
:101AC0000100F5E7001002400004004090F83D10CE
:101AD000012901D001207047022180F83D100068E3
:101AE0000B49884208D0B0F1804F05D0094988429F
:101AF00002D00949884204D1816801F00701062912
:101B000003D0016841F0010101600020704700002E
:101B1000002C0140000400400008004001680A6AEF
:101B200041F211131A4207D10A6A9B101A4203D1DB
:101B30000A6822F001020A60012180F83D100020AD
:101B4000704770B5044690F83C00012817D0012575
:101B500084F83C50022084F83D002068826822F01E
:101B6000770222F47F4282600868502830D00DDC72
:101B700020284DD005DC98B310283BD148E0022046
:101B800070BD302844D0402834D139E0602828D0B6
:101B9000702806D0B0F5805F2CD0B0F5005F29D159
:101BA0000AE0CB68D1E90121206800F089FC2068B7
:101BB000816841F0770109E0CB68D1E90121206813
:101BC00000F07EFC2068816841F48041816011E072
:101BD000CA684968206800F085FC5021206807E049
:101BE00016E0CA684968206800F08DFC6021206812
:101BF00000F070FC84F83D50002084F83C0070BD7B
:101C0000CA684968206800F06DFC40212068EFE751
:101C1000226801461046EBE770477047F8B5026846
:101C200004461068D168536910F00F0F4FF000059B
:101C300053D003F0010601F4907737435FD0C20719
:101C400005D0CA0503D5226C42F001022264420786
:101C500005D5DA0703D0226C42F002022264820723
:101C600005D5DA0703D0226C42F004022264020791
:101C700007D501F02002324303D0226C42F0080263
:101C80002264226C002A34D0800604D5880602D54E
:101C9000204600F06AFC20684069216CC0F3801087
:101CA000090700D430B3204600F047FC20684169A2
:101CB00049061BD5416921F040014161A06BA8B1E3
:101CC00058494163A06BFEF7FDFF002811D0A06BBF
:101CD000416B01B0BDE8F040084783060FD58B0685
:101CE0000DD52046BDE8F84000F03FBC2046FFF788
:101CF00094FFF8BD2046FFF790FF2564F8BD266BE2
:101D00002023012E52D1C60650D5CE064ED51068DE
:101D100050680090506940062AD5A16B0868406859
:101D20000004000CEAD0A68D8642E7D9E0858869D8
:101D3000202818D0D06820F48070D06020684169D5
:101D400021F0010141612068416921F040014161B8
:101D500084F83E3025632068C16821F01001C1601D
:101D6000A06BFEF78BFFA08DE18D401A81B219E0C8
:101D7000A08DE18D401A81B2E08D0028BED00029EF
:101D8000BCD0D06820F49070D0602068426922F006
:101D90000102426184F83E3025632068C26822F067
:101DA0001002C2602046FFF737FFF8BD05062BD5AD
:101DB0000D0629D594F83D002128F6D1A068B0F58C
:101DC000805F01D12069B0B1206A411C2162216885
:101DD00000784860E08C401E0004000CE084E4D1F0
:101DE0002068C16821F08001C1602068C16841F0AD
:101DF0004001C160F8BD206A0088C0F3080050604F
:101E0000206A801C2062E5E74006F3D54806F1D53C
:101E1000D168204621F04001D16084F83D3000F0C7
:101E200004F9F8BD2B25000870B5040004D094F81F
:101E30003D00002510B106E0012070BD84F83C5043
:101E4000204600F023F8242084F83D002068C16873
:101E500021F40051C160204600F0E2FB20680169D6
:101E600021F4904101612068416921F02A0141611A
:101E70002068C16841F40051C1602564202084F8C5
:101E80003D0084F83E00002070BD000030B585B0F4
:101E90000024009401940294039400681849884235
:101EA0002CD11848816941F480418161816901F434
:101EB00080410491816941F0040181618069124D82
:101EC00000F0040004904FF4007000900220019094
:101ED0000320039069462846FEF752FF2815CDE9F6
:101EE0000004694628460294FEF74AFF0022114684
:101EF0002520FFF733FA2520FFF722FA05B030BD81
:101F000000380140001002400008014090F83E30C7
:101F1000202B0ED159B152B190F83C30012B08D092
:101F2000012380F83C300023036300F0D5BB01207F
:101F3000704702207047000000680C49884213D1A6
:101F40000B490A780D2A05D00A4B48781A54401CD0
:101F5000487003E0002048700120488005480122B5
:101F600003494438FFF7D2BF7047000000380140F2
:101F700000000020700100202DE9F843044690F88D
:101F80003D001F4616460D4620284CD1C5B1BEB1B6
:101F900094F83C00012846D0012084F83C004FF022
:101FA0000008C4F84080212084F83D00FEF7E2FFDD
:101FB000A6848146E684A068B0F5805F03D004E083
:101FC0000120BDE8F883206928B12E465FF00005A6
:101FD00084F83C800EE00026FAE78021204600F0DD
:101FE00096FBA0B9AEB116F8010B21684860E08CF1
:101FF000401EE084E08C4B464FF000020097002822
:10200000EBD14FF04001204600F081FB30B10320BE
:10201000D7E735F8020BC0F30800E6E7202084F884
:102020003D000020CDE70220CBE77047FEE70168C6
:102030004A69D24352050FD46FF480624A6100218D
:1020400040F8301F202242738173026942F004027B
:10205000026101730120704700207047F8B5044603
:10206000C06A1E460D461746082807D0012805D02D
:1020700010F5803F02D0206B122804D1206801683F
:1020800041F480710160134600224FF00111204697
:10209000009600F057F840B120680068C00502D5EE
:1020A0004FF4007020640320F8BD2069B0F5804F24
:1020B0000ED00620216800EAD51040F0F00008613B
:1020C00033463A460B49204600F070F878B902E0F2
:1020D00005F0FE0000E0E8B22168086105493346DA
:1020E0003A46891F204600F061F80028DCD0012024
:1020F000F8BD00000800010070B516460D46044604
:102100000DE02046FFF793FF08B1012070BD681C69
:1021100005D0FEF72FFF801BA84207D835B12068F5
:102120004069C0434007ECD4002070BD002044F853
:10213000300F20216173A073216941F020012161DA
:102140002073E2E72DE9F0471E4690460D4604460F
:10215000C1F30747DDF8209008E0701C06D0FEF7B9
:1021600009FFA0EB0900B0420FD876B12068012F1B
:1021700018D0806925EA00000004000C14D000216A
:102180004145EAD00020BDE8F087002044F8300F38
:1021900020216173A073216941F020012161207326
:1021A0000120F0E74069E5E70121E9E72DE9F04783
:1021B0009A4691460E46044600254FF02008C1F38A
:1021C000074725E020684069C043400514D42068D3
:1021D000016841F40071016021686FF4806048611A
:1021E000256384F83D8084F83E50206C40F0040064
:1021F000206484F83C501FE0B9F1FF3F08D0FEF79F
:10220000B9FEA0EB0A0149450CD8B9F1000F09D07D
:102210002068012F13D0806926EA00000004000C1A
:102220000BD0CFE744F8305F84F80D80A5732069A8
:1022300040F02000206125730120BDE8F08740694F
:10224000EAE770B516460D4604460DE02046FFF756
:10225000EEFE08B1012070BD681C05D0FEF78AFEB5
:10226000801BA84207D835B120684069C0430006EA
:10227000ECD4002070BD002044F8300F20216173A1
:10228000A073216941F0200121612073E2E7000081
:102290003EB500210D48009101910B4A0291026068
:1022A00001248160047301754FF460220461C261EE
:1022B0004160FEF7B9FB0520CDE9000402906946B4
:1022C0000248FEF7ADFA3EBD002401401800002090
:1022D00070B586B0002418480094019402940394C9
:1022E000816941F020018161816901F0200104913F
:1022F000816941F004018161816901F00401049167
:10230000816941F00801816180690C4E00F008008C
:1023100048F240050490002229463046FEF725FE8B
:1023200001200095CDE90104022003906946304662
:10233000FEF726FD06B070BD001002400008014007
:1023400010B586B0002412480094019402940394BE
:1023500004944FF08041059401601F21C0E90114ED
:102360004FF6FE71C0E903148461FFF763FB4FF47D
:102370008050009069460648FFF7E3FB2020CDE936
:10238000040404A90248FFF721FB06B010BD0000B9
:102390009C00002010B586B00024124800940194DF
:1023A0000294039404940E49059401601F21C0E92E
:1023B00001144FF6FE71C0E903148461FFF73AFB84
:1023C0004FF48050009069460648FFF7BAFB202082
:1023D000CDE9040404A90348FFF7F8FA06B010BDDC
:1023E00000040040E4000020FEE7FEE7704770476D
:1023F000FEF74EBF30B593B028216846FDF7ABFE1F
:1024000014210AA8FDF7A7FE002401200F941094C0
:102410001194010412948DE813000490C004CDE9D6
:102420000810022507956846FFF72CF90F20CDE923
:102430000A056802CDE90C4001210AA80E94FFF7B5
:1024400035F8680311900F950FA8FEF7B9FF13B088
:1024500030BD7047F0B50268164B174C174D4FF062
:102460008047984205D0B84203D0A04201D0A8428C
:1024700003D122F070064A683243984205D0B84230
:1024800003D0A04201D0A84203D122F44074CA680C
:1024900022434C6922F08002224302608A68C262B1
:1024A0000A688262984201D1096901630121416190
:1024B000F0BD0000002C0140000400400008004076
:1024C00010B5846842EA032224F47F440A4322437D
:1024D000826010BD826822F070020A4342F0070158
:1024E0008160704710B5036A046A24F00104046235
:1024F000846924F0F00444EA021423F00A020A4337
:102500008461026210BD10B5036A23F010030362F8
:102510008369046A23F4704343EA023224F0A0037F
:1025200043EA01118261016210BD10B5406A0021C9
:10253000C185C184FFF771FB10BD0168CA6822F430
:102540009072CA6001684A6922F001024A61016B17
:10255000012904D10168CA6822F01002CA60202152
:1025600080F83E1000210163704708B590F83E10D6
:10257000222901D0022008BD82684FF480539A427C
:1025800001D1016921B1816A9A421BD04AB10AE0A6
:102590000268816A5268C2F308020A80816A891C53
:1025A00008E0026972B10268526802F07F020A70A4
:1025B000816A491C8162C18D491E0904090CC185CB
:1025C00003D019E002685268F1E70168CA6822F096
:1025D0002002CA600168CA6822F48072CA60016879
:1025E0004A6922F001024A61202180F83E10016B05
:1025F000012903D0FFF7A0FC002008BD00210163E2
:102600000168CA6822F01002CA6001680A68D2062E
:1026100002D50A6849680091818DFFF7FDFAEBE762
:1026200070B5044600680169E26821F44051114325
:1026300001612169A0680843616908432168CA688B
:1026400041F20C639A430243CA6020684169A2695F
:1026500021F44071114341611E492068884202D132
:10266000FEF7CAFF01E0FEF7B7FF00EBC00101EB88
:102670000012606864218000B2FBF0F3B3FBF1F359
:102680006FF018067343B2FBF0F5B2FBF0F605EB02
:102690008305322303EB0515B5FBF1F5B6FBF1F627
:1026A00005F0F00505EB0615B2FBF0F6B2FBF0F015
:1026B000B0FBF1F06FF01802504306EB800003EB23
:1026C0000010B0FBF1F0216800F00F002844886092
:1026D00070BD00000038014081628285C285002102
:1026E0000164222280F83E2080F83C100168CA680C
:1026F00042F48072CA6001684A6942F001024A618C
:102700000068C16841F02001C160002070472DE9D8
:10271000F041984617460E460446069D1DE0681C8B
:102720001BD02DB1FEF726FCA0EB0800A84214D95F
:102730002068C16821F4D071C1602068416921F02E
:1027400001014161202084F83D0084F83E00002012
:1027500084F83C000320BDE8F0812068006836EA78
:10276000000004D00020B842D9D00020F3E70120B7
:10277000F9E700000148FFF751BA00002C010020E2
:10278000FEE700000FB4084B10B504A902AA039895
:1027900000F0EEF8044602A9002000F06CFC204690
:1027A00010BC5DF814FB0000773000080907090E23
:1027B000002804DB00F1E02080F80014704700F0EE
:1027C0000F0000F1E02080F8141D704702E008C8F7
:1027D000121F08C1002AFAD170477047002001E09B
:1027E00001C1121F002AFBD1704700002DE9FF5FD5
:1027F00082B00021DDE90430020DDDF840B0034372
:1028000018D044F61050A2F2FF324243151411982A
:1028100001281FD0A5EB0B00401C5FEA000A4FF017
:1028200000064E4FDFF83891B046504615D5CAF134
:10283000000413E0119801244AA3012801D16FEA92
:102840000B010298119AC0E90031C0E9024206B0BA
:10285000BDE8F09FCBF10000DFE704460021404ACD
:10286000491842EB0450CDE9001012E0E00707D010
:1028700032463B4640464946FDF72BFD8046894699
:1028800032463B4610461946FDF723FD06460F46E5
:102890006410002CEAD1DDE90401DDE90023BAF17E
:1028A000000F06DAFDF715FD42464B46FDF711FD18
:1028B00005E0FDF782FE42464B46FDF77EFE0446EC
:1028C0000E460022284BFDF7FFFE03D84FF0FF30E5
:1028D000014607E00022254B20463146FDF752FC19
:1028E000FDF7DAFE102409E0002C0ADB0A2200239F
:1028F000FDF7B4FD039B30321A55641E50EA010205
:10290000F2D1641C039AC4F111031444119A012AF0
:1029100003D0012208430DD10AE0084304D000206F
:102920004FF0110B119072E7A3EB0B056D1E0DE03C
:102930005B4504DD4FF0000205F1010504E003DA18
:102940004FF00002A5F10105002AECD00298119980
:10295000C0E90231C0E9004579E7000000001440F9
:102960000000F03F300000000000F0430000E03FB6
:102970002DE9FF4F95B09A46884606460025EEE1C0
:10298000252877D100242746F94A0121039400E045
:10299000044316F8013F203B01FA03F01042F7D13F
:1029A00030782A2811D06FF02F033078A0F1300250
:1029B000092A16D8039A44F0020402EB820203EBC0
:1029C00042021044761C0390EFE758F8042B039260
:1029D000002A03DA504244F40054039044F0020405
:1029E000761C30782E2816D116F8010F44F0040416
:1029F0002A280DD06FF02F023078A0F13003092B78
:102A000009D807EB870302EB4303C718761CF3E7EB
:102A100058F8047B761C30786C280FD006DC4C28E4
:102A200017D068280DD06A2814D104E0742810D07B
:102A30007A280FD10DE044F400140AE044F4801425
:102A400001E044F440147278824202D104F580140B
:102A5000761C761C307866280BD013DC582877D08B
:102A600009DC002875D04528F6D04628F4D0472840
:102A70001AD193E118E0632835D0642879D065280D
:102A800012D18BE1702873D008DC6728F1D0692857
:102A90006FD06E280DD06F2806D1ACE073282CD0F3
:102AA000752874D0782853D05246179990476D1CDA
:102AB00054E1C4F30250022809D003280DD0D8F8FD
:102AC000001004280DD00D6008F1040846E1D8F884
:102AD0000010EA17C1E90052F6E7D8F800100D809F
:102AE000F2E70D70F0E718F8041B8DF800100020D5
:102AF0008DF80100EB46012003E058F804BB4FF0CD
:102B0000FF3061074FF0000102D40DE009F101012F
:102B10008946B9420FDA8145F8DB1BF80910002914
:102B2000F4D108E009F1010189468142FADB1BF882
:102B300009100029F6D103985346A0EB0907214656
:102B40003846179A00F080FA284400EB090507E0A0
:102B500044E008E10DE01BF8010B5246179990473D
:102B6000B9F10109F7D2534621463846179AF2E0E7
:102B700039E00A21C4F302524FF0000B0091022AFF
:102B800006D058F8040BC117032A09D00AE023E045
:102B900008F1070020F00702F2E80201904605E084
:102BA00000B2C117042A01D140B2C117002906DAC8
:102BB0000A460021404261EB02012D2202E022057B
:102BC00004D52B228DF80420012203E0E20701D076
:102BD0002022F7E7914657E00A2100E010214FF04C
:102BE000000B00910BE010214FF0000B44F00404A7
:102BF0000827009103E008204FF0000B0090C4F379
:102C00000252022A05D058F8040B0021032A08D0EA
:102C100008E008F1070020F00702F2E80201904600
:102C200003E080B2042A00D1C0B24FF000092207AD
:102C30002AD53278702A07D0DDF800C08CF0100C4D
:102C40005CEA0B0C05D00EE040228DF80420012236
:102C500008E050EA010306D030238DF804308DF8E7
:102C6000052002229146009B83F0080353EA0B03E0
:102C70000AD150EA010201D1620705D530228DF850
:102C800004204FF001097F1E3278582A04D039A25F
:102C90000C920CAA02920BE03BA2F9E75B46009A69
:102CA000FDF7DCFB0C9B9B5C029A521E0292137098
:102CB00050EA0102F2D1029804A9081A00F1200B8F
:102CC000600702D524F4803400E001275F4502DD6F
:102CD000A7EB0B0000E0002000EB0B010090039835
:102CE0004944401A0390E00306D453462146179AFC
:102CF000039800F0A9F90544002706E001A8524610
:102D0000C05D179990476D1C7F1C4F45F6DBE003B3
:102D10000CD553462146179A039800F095F90544BF
:102D200004E030205246179990476D1C0099481EC8
:102D300000900029F5DC08E00298029952460078DC
:102D4000491C0291179990476D1CBBF10001ABF132
:102D5000010BF1DC5BE100F065F90544761C30788D
:102D600000287FF40DAE19B02846BDE8F08F0000B2
:102D70000928010030313233343536373839616251
:102D80006364656600000000303132333435363715
:102D9000383941424344454600000000600700D4F2
:102DA000062708F1070020F00700F0E8022380461C
:102DB00003F0004C5FEA0C0001D097A009E0200569
:102DC00001D596A005E0E00701D095A001E0AFF2A3
:102DD0004C001390307823F0004365280CD006DCBB
:102DE000452809D046281DD047287FD13BE06628DA
:102DF00018D067287AD136E00021112F01DB11208D
:102E000000E0781CCDE9000104A90CA8FFF7EEFC56
:102E1000DDE90D010C9A4FF0000B07F1010910924A
:102E200000914EE04FF000400097CDE9011004A959
:102E30000CA8FFF7DBFCDDE90D020C9B0F994FF0AE
:102E4000000B91461093009211B9791C00EB010917
:102E5000B7EB090003D4C0F1FF3B07F10109A9EB6F
:102E60000700019042E0012F00DA01270021112F15
:102E700001DD112000E03846CDE9000104A90CA8CD
:102E8000FFF7B4FCDDE90D010C9A00914FF0000B47
:102E9000B946109221070FD4009A4A4503DA9146A9
:102EA00001E0A9F10109B9F1010F05DD109AA9F1BD
:102EB0000101515C3029F4D0B84202DA10F1040F5C
:102EC00003DA0121CDE9011010E0002803DC83447E
:102ED000A9EB000102E0411C494500DD8946A0EB59
:102EE0000B00401C01904FF000400290200705D4D9
:102EF0000198484502DB4FF0FF30019000208DF82B
:102F00004B0002980DF14B07B0F1004F25D0022085
:102F10000C902B200D90029800280CDA4042029071
:102F20002D200D9007E00A210298FDF781FA30313B
:102F3000029007F8011D0C99481E0C900029F2DC44
:102F400002980028EFD1791E0D980870307800F0B3
:102F5000200040F0450007F8020D11A8C01BC01D5D
:102F600002901398007800B1012000EB090101984C
:102F700001EBE071029801440398401A401E03904F
:102F8000E00306D453462146179A039800F05CF8F4
:102F900005441398007818B15246179990476D1C54
:102FA000E00323D553462146179A039800F04CF8C6
:102FB00005441BE0BBF1000F07DB0098584504DD1A
:102FC0001098179910F80B0001E01799302052461D
:102FD000904701980BF1010B401E05F1010501908E
:102FE00004D12E205246179990476D1CB9F100016B
:102FF000A9F10109DEDC05E017F8010B524617992B
:1030000090476D1C0299481E02900029F4DC53463B
:103010002146179A03989EE62D0000002B00000021
:10302000200000002DE9F041044600251E46174609
:10303000880404D405E039462020B0476D1C641E86
:10304000F9D52846BDE8F0812DE9F0410446002578
:103050001E469046C80301D5302700E0202788048B
:1030600004D505E041463846B0476D1C641EF9D5CD
:103070002846BDE8F0810A68531C0B601070704749
:10308000026081608380704710B53220FDF766FED4
:10309000302000F035F80520FDF760FE302000F00C
:1030A0002FF80120FDF75AFE302000F029F80A2001
:1030B000FDF754FE202000F023F80A20FDF74EFE15
:1030C000282000F01DF80120FDF748FE082000F040
:1030D00017F80120FDF742FE012000F011F8012051
:1030E000FDF73CFE0120FDF739FE062000F008F850
:1030F0000120FDF733FEBDE810400C20AFF3008047
:103100001CB500F0F00141F00C028DF8042041F0F4
:10311000080100018DF8051040F00C018DF8061033
:1031200040F008008DF8070064200090042301AAF5
:103130004E210248FDF7E8FF1CBD000048000020BA
:103140001CB500F0F00141F00D028DF8042041F0B3
:10315000090100018DF8051040F00D018DF80610F1
:1031600040F009008DF8070064200090042301AAB4
:103170004E210248FDF7C8FF1CBD0000480000209A
:1031800010B5044602E0641CFFF7DAFF207800283F
:10319000F9D110BDB2B0FEF783F8FFF72BF9FFF7B6
:1031A00097F87E487C49002401607D49C0E90114FC
:1031B0004FF48041C0E9034144618461C461046209
:1031C000FDF7DEFEFFF7BCF8FFF762F8FFF7E2F865
:1031D00072487449E43001604FF4E131C0E90114F0
:1031E0000C21C460C0E904418461C461FEF71CFE87
:1031F0006D4964231422A1F15800FEF7BDFE6A4810
:1032000001226A495838FEF781FE64489C30FEF777
:103210005DFC62483038FDF7CBFC654D5F494FF4EB
:1032200000432A46543119A8FFF72AFF19A800F0D5
:10323000EBF8FFF729FF5D4CDFF87881DFF878A124
:10324000DFF878B14FF48C764FF472776FF009099C
:1032500064216846FCF77FFF19A800F0D5F89DF8B7
:103260007000FDF7BFF802460B4655A11DA8FFF7F9
:1032700089FA9020FFF744FF1DA8FFF781FF1DA9E1
:103280006846FCF773FF51A16846FCF76FFF012207
:1032900040212846FDF769FE404831469C30FDF745
:1032A000AEFA3E483038FDF739FB3C4828219C30C7
:1032B000FDF7A5FA002240212846FDF756FE3748C3
:1032C00039469C30FDF79BFAA088FDF78BF8002269
:1032D0004346FCF7FEFFFDF792F8E0809DF8710091
:1032E000FDF780F802460B4639A12CA8FFF74AFAF1
:1032F000D020FFF705FF2CA8FFF742FF2CA9684656
:10330000FCF734FF31A16846FCF730FFE088FDF799
:1033100069F84A46FDF74FF802460B462FA122A84E
:10332000FFF730FA8020FFF7EBFE22A8FFF728FF17
:1033300022A96846FCF71AFF24A16846FCF716FF8D
:10334000E088FDF74FF852465B46FCF7C2FF274A7C
:10335000274BFCF7B8FF02460B4626A127A8FFF72C
:1033600011FAC020FFF7CCFE27A8FFF709FF27A915
:103370006846FCF7FBFE22A16846FCF7F7FE0A4808
:1033800064231A4669465838FEF7F6FD03481D497E
:103390009C30FDF734FA5BE7005400404800002001
:1033A000A0860100003801408401002000000020B8
:1033B0000008014000001440C3F5285C8FC2C53FDF
:1033C00054656D703A252E32660000002C00000016
:1033D00048756D693A252E3266000000566F6C7490
:1033E0006167653A252E3266000000009A99999926
:1033F0009999B93F447573743A252E3266000000DE
:103400000A00000040420F002DE9F04F4FF0000A83
:103410008BB0044656465746012100F097F8A18824
:1034200000222068FDF7A1FD1220FDF797FC72B67F
:10343000A068FEF74BFB0021204600F087F8A0684B
:103440000025006845624FF4FA7903E0406A80B2D3
:1034500048453BD8A1882068FDF782FD0128A06877
:103460000068F3D0456203E0406A80B248452DD839
:10347000A1882068FDF774FD0028A0680068F3D0DB
:10348000416A456202E080B248451FD8A1882068A1
:10349000FDF766FD0128A0680068406AF3D04FF090
:1034A0000008EB46A0680068456203E0406A80B20D
:1034B00048450BD8A1882068FDF752FD0028A06878
:1034C0000068F3D0456206E0484504D962B60020A2
:1034D0000BB0BDE8F08FA1882068FDF741FD012801
:1034E000A0680068406A80B2EED0A0F115010929F9
:1034F00001D2002003E03D38132801D2012082468A
:103500000BF808A008F10108B8F1280FCADBA06881
:10351000FEF704FB62B600215846425C491C324467
:103520005206160E0829F8DB1021425C491C3A4469
:103530005206170E1829F8DB2020401C2828FCDB37
:1035400070087908217360730120C1E71FB500225C
:1035500000920192029203920322012909D00029CC
:1035600006D181880091039200686946FDF708FC46
:103570001FBD8188009101210191F4E70000000046
:103580000000000001020304060708090000000013
:1035900001020304B43500080000002018000000F8
:1035A000CC270008CC35000818000020800500005A
:1035B000DC270008000000000000000001000000FF
:0C35C00010000000000000000024F400D7
:04000005080000ED02
:00000001FF
